:1000000020C047C046C045C044C043C042C041C0F4
:1000100009C13FC03EC03DC03CC03BC03AC039C032
:1000200038C037C036C035C034C033C032C031C02C
:1000300030C02FC02EC02DC02CC022C1010001062F
:10004000800011241FBECFEFD1E0DEBFCDBFECE3B7
:10005000F0E040E017C0B591A5913591259105914B
:1000600007FD0CC095918591EF01F92FE82F0590C0
:100070000D92A217B307D9F7FE0104C01D92A21773
:10008000B307E1F7E134F40731F75AD04FC1F894E0
:02009000FFCFA0
:02009200B6CFE7
:1000940099B119B849B1815021E030E0B90102C0E9
:1000A400660F771F8A95E2F7CB01842B89B92E9AC4
:0A00B4002E99FECF86B197B1089592
:1000BE008AB3897F8ABB8BB3897F8BBB489A88B101
:1000CE0018B82F9A2A9AE0E6F0E080818660808345
:0200DE00089583
:0C00E0008093000181E0809304010895EA
:1000EC00809100018031A1F0813161F08F3029F0D5
:1000FC0080E091E090930401089581EF91E090935A
:10010C00040108958091020191E0909304010895F7
:0C011C008091010191E09093040108958E
:0801280081E0809305010895B8
:0801300081E0809304010895B1
:0801380081E0809303010895AA
:1001400088ED809371001092730015BE87B3887F8D
:1001500087BB809162008760809362008AB3867556
:100160008ABB80916300896A809363008AE38093ED
:100170007000A5DF8AB38F7A8ABB809163008F7A83
:100180008093630073D042D07894CFE780910301CD
:100190008130A9F080910501813099F180910401AD
:1001A0008130A1F71092040185B7806285BF8895E0
:1001B00085B78F7D85BF80910301813059F71092FB
:1001C00003012F9A67DF8C0182E064DF16950795A3
:1001D000169507952C2F201B209301019695879546
:1001E000969587958058809302012F9885B78062F5
:1001F00085BF889585B78F7D85BF8091050181304A
:0C02000069F61092050105D00AD0CECF9F
:06020C0081E08FB90895A6
:0C0212008BE69EEE9DBD8CBD81E0089542
:06021E0082E08EBD089590
:100224001F920F920FB60F9211242F933F934F9367
:100234005F936F937F938F939F93AF93BF93EF934A
:10024400FF931EBC77DFFF91EF91BF91AF919F9118
:100254008F917F916F915F914F913F912F910F906B
:080264000FBE0F901F901895CA
:10026C0082E88093A2008FEF8093A0008CEB8093A8
:04027C00A50008953C
:100280001F920F920FB60F9211242F933F934F930B
:100290005F936F937F938F939F93AF93BF93EF93EE
:1002A000FF938091A30087FD1FC086FF0CC0809143
:1002B000A30083FD30C08091A30080FD27C082E0B1
:1002C0008093A40031DFFF91EF91BF91AF919F9197
:1002D0008F917F916F915F914F913F912F910F90EF
:1002E0000FBE0F901F9018958091A30081FF07C04B
:1002F000FDDE8093A00083E08093A400E4CF83E040
:100300008093A4008091A000EBDEDDCF83E080939A
:10031000A4000EDFD8CF8091A3008093A30082E0D9
:060320008093A400D0CF81
:02032600089538
:02032800089536
:02032A00089534
:0E032C00EC01FCDFFADFCE01FADFCE0100D0DB
:02033A00A9DE3A
:00000001FF
